{
  "_format": "hh-sol-artifact-1",
  "contractName": "NFT",
  "sourceName": "contracts/NFT.sol",
  "abi": [
    {
      "inputs": [],
      "stateMutability": "nonpayable",
      "type": "constructor"
    },
    {
      "anonymous": false,
      "inputs": [
        {
          "indexed": true,
          "internalType": "address",
          "name": "owner",
          "type": "address"
        },
        {
          "indexed": true,
          "internalType": "address",
          "name": "approved",
          "type": "address"
        },
        {
          "indexed": true,
          "internalType": "uint256",
          "name": "tokenId",
          "type": "uint256"
        }
      ],
      "name": "Approval",
      "type": "event"
    },
    {
      "anonymous": false,
      "inputs": [
        {
          "indexed": true,
          "internalType": "address",
          "name": "owner",
          "type": "address"
        },
        {
          "indexed": true,
          "internalType": "address",
          "name": "operator",
          "type": "address"
        },
        {
          "indexed": false,
          "internalType": "bool",
          "name": "approved",
          "type": "bool"
        }
      ],
      "name": "ApprovalForAll",
      "type": "event"
    },
    {
      "anonymous": false,
      "inputs": [
        {
          "indexed": true,
          "internalType": "address",
          "name": "from",
          "type": "address"
        },
        {
          "indexed": true,
          "internalType": "address",
          "name": "to",
          "type": "address"
        },
        {
          "indexed": true,
          "internalType": "uint256",
          "name": "tokenId",
          "type": "uint256"
        }
      ],
      "name": "Transfer",
      "type": "event"
    },
    {
      "inputs": [
        {
          "internalType": "address",
          "name": "to",
          "type": "address"
        },
        {
          "internalType": "uint256",
          "name": "tokenId",
          "type": "uint256"
        }
      ],
      "name": "Mint",
      "outputs": [],
      "stateMutability": "nonpayable",
      "type": "function"
    },
    {
      "inputs": [
        {
          "internalType": "address",
          "name": "to",
          "type": "address"
        },
        {
          "internalType": "uint256",
          "name": "amount",
          "type": "uint256"
        }
      ],
      "name": "Transfers",
      "outputs": [],
      "stateMutability": "nonpayable",
      "type": "function"
    },
    {
      "inputs": [
        {
          "internalType": "address",
          "name": "to",
          "type": "address"
        },
        {
          "internalType": "uint256",
          "name": "tokenId",
          "type": "uint256"
        }
      ],
      "name": "approve",
      "outputs": [],
      "stateMutability": "nonpayable",
      "type": "function"
    },
    {
      "inputs": [
        {
          "internalType": "address",
          "name": "owner",
          "type": "address"
        }
      ],
      "name": "balanceOf",
      "outputs": [
        {
          "internalType": "uint256",
          "name": "",
          "type": "uint256"
        }
      ],
      "stateMutability": "view",
      "type": "function"
    },
    {
      "inputs": [],
      "name": "baseURI",
      "outputs": [
        {
          "internalType": "string",
          "name": "",
          "type": "string"
        }
      ],
      "stateMutability": "view",
      "type": "function"
    },
    {
      "inputs": [
        {
          "internalType": "uint256",
          "name": "tokenId",
          "type": "uint256"
        }
      ],
      "name": "getApproved",
      "outputs": [
        {
          "internalType": "address",
          "name": "",
          "type": "address"
        }
      ],
      "stateMutability": "view",
      "type": "function"
    },
    {
      "inputs": [
        {
          "internalType": "address",
          "name": "owner",
          "type": "address"
        },
        {
          "internalType": "address",
          "name": "operator",
          "type": "address"
        }
      ],
      "name": "isApprovedForAll",
      "outputs": [
        {
          "internalType": "bool",
          "name": "",
          "type": "bool"
        }
      ],
      "stateMutability": "view",
      "type": "function"
    },
    {
      "inputs": [],
      "name": "name",
      "outputs": [
        {
          "internalType": "string",
          "name": "",
          "type": "string"
        }
      ],
      "stateMutability": "view",
      "type": "function"
    },
    {
      "inputs": [],
      "name": "owner",
      "outputs": [
        {
          "internalType": "address",
          "name": "",
          "type": "address"
        }
      ],
      "stateMutability": "view",
      "type": "function"
    },
    {
      "inputs": [
        {
          "internalType": "uint256",
          "name": "tokenId",
          "type": "uint256"
        }
      ],
      "name": "ownerOf",
      "outputs": [
        {
          "internalType": "address",
          "name": "",
          "type": "address"
        }
      ],
      "stateMutability": "view",
      "type": "function"
    },
    {
      "inputs": [
        {
          "internalType": "address",
          "name": "from",
          "type": "address"
        },
        {
          "internalType": "address",
          "name": "to",
          "type": "address"
        },
        {
          "internalType": "uint256",
          "name": "tokenId",
          "type": "uint256"
        }
      ],
      "name": "safeTransferFrom",
      "outputs": [],
      "stateMutability": "nonpayable",
      "type": "function"
    },
    {
      "inputs": [
        {
          "internalType": "address",
          "name": "from",
          "type": "address"
        },
        {
          "internalType": "address",
          "name": "to",
          "type": "address"
        },
        {
          "internalType": "uint256",
          "name": "tokenId",
          "type": "uint256"
        },
        {
          "internalType": "bytes",
          "name": "_data",
          "type": "bytes"
        }
      ],
      "name": "safeTransferFrom",
      "outputs": [],
      "stateMutability": "nonpayable",
      "type": "function"
    },
    {
      "inputs": [
        {
          "internalType": "address",
          "name": "operator",
          "type": "address"
        },
        {
          "internalType": "bool",
          "name": "approved",
          "type": "bool"
        }
      ],
      "name": "setApprovalForAll",
      "outputs": [],
      "stateMutability": "nonpayable",
      "type": "function"
    },
    {
      "inputs": [
        {
          "internalType": "bytes4",
          "name": "interfaceId",
          "type": "bytes4"
        }
      ],
      "name": "supportsInterface",
      "outputs": [
        {
          "internalType": "bool",
          "name": "",
          "type": "bool"
        }
      ],
      "stateMutability": "view",
      "type": "function"
    },
    {
      "inputs": [],
      "name": "symbol",
      "outputs": [
        {
          "internalType": "string",
          "name": "",
          "type": "string"
        }
      ],
      "stateMutability": "view",
      "type": "function"
    },
    {
      "inputs": [
        {
          "internalType": "uint256",
          "name": "index",
          "type": "uint256"
        }
      ],
      "name": "tokenByIndex",
      "outputs": [
        {
          "internalType": "uint256",
          "name": "",
          "type": "uint256"
        }
      ],
      "stateMutability": "view",
      "type": "function"
    },
    {
      "inputs": [
        {
          "internalType": "address",
          "name": "owner",
          "type": "address"
        },
        {
          "internalType": "uint256",
          "name": "index",
          "type": "uint256"
        }
      ],
      "name": "tokenOfOwnerByIndex",
      "outputs": [
        {
          "internalType": "uint256",
          "name": "",
          "type": "uint256"
        }
      ],
      "stateMutability": "view",
      "type": "function"
    },
    {
      "inputs": [
        {
          "internalType": "uint256",
          "name": "tokenId",
          "type": "uint256"
        }
      ],
      "name": "tokenURI",
      "outputs": [
        {
          "internalType": "string",
          "name": "",
          "type": "string"
        }
      ],
      "stateMutability": "view",
      "type": "function"
    },
    {
      "inputs": [],
      "name": "totalSupply",
      "outputs": [
        {
          "internalType": "uint256",
          "name": "",
          "type": "uint256"
        }
      ],
      "stateMutability": "view",
      "type": "function"
    },
    {
      "inputs": [
        {
          "internalType": "address",
          "name": "from",
          "type": "address"
        },
        {
          "internalType": "address",
          "name": "to",
          "type": "address"
        },
        {
          "internalType": "uint256",
          "name": "tokenId",
          "type": "uint256"
        }
      ],
      "name": "transferFrom",
      "outputs": [],
      "stateMutability": "nonpayable",
      "type": "function"
    }
  ],
  "bytecode": "0x60806040523480156200001157600080fd5b5060408051808201825260038082526213919560ea1b602080840182905284518086019095529184529083015290620000516301ffc9a760e01b620000cd565b81516200006690600690602085019062000152565b5080516200007c90600790602084019062000152565b506200008f6380ac58cd60e01b620000cd565b620000a1635b5e139f60e01b620000cd565b620000b363780e9d6360e01b620000cd565b5050600a80546001600160a01b03191633179055620001fe565b6001600160e01b031980821614156200012d576040805162461bcd60e51b815260206004820152601c60248201527f4552433136353a20696e76616c696420696e7465726661636520696400000000604482015290519081900360640190fd5b6001600160e01b0319166000908152602081905260409020805460ff19166001179055565b828054600181600116156101000203166002900490600052602060002090601f0160209004810192826200018a5760008555620001d5565b82601f10620001a557805160ff1916838001178555620001d5565b82800160010185558215620001d5579182015b82811115620001d5578251825591602001919060010190620001b8565b50620001e3929150620001e7565b5090565b5b80821115620001e35760008155600101620001e8565b611b59806200020e6000396000f3fe608060405234801561001057600080fd5b50600436106100fc5760003560e01c806301ffc9a71461010157806306fdde031461013c578063081812fc146101b9578063095ea7b3146101f25780630f6798a51461022057806318160ddd1461024c57806323b872dd146102665780632f745c591461029c578063422a8086146102c857806342842e0e146102f45780634f6ccce71461032a5780636352211e146103475780636c0360eb1461036457806370a082311461036c5780638da5cb5b1461039257806395d89b411461039a578063a22cb465146103a2578063b88d4fde146103d0578063c87b56dd14610494578063e985e9c5146104b1575b600080fd5b6101286004803603602081101561011757600080fd5b50356001600160e01b0319166104df565b604080519115158252519081900360200190f35b610144610502565b6040805160208082528351818301528351919283929083019185019080838360005b8381101561017e578181015183820152602001610166565b50505050905090810190601f1680156101ab5780820380516001836020036101000a031916815260200191505b509250505060405180910390f35b6101d6600480360360208110156101cf57600080fd5b5035610598565b604080516001600160a01b039092168252519081900360200190f35b61021e6004803603604081101561020857600080fd5b506001600160a01b0381351690602001356105fa565b005b61021e6004803603604081101561023657600080fd5b506001600160a01b0381351690602001356106d5565b6102546106e3565b60408051918252519081900360200190f35b61021e6004803603606081101561027c57600080fd5b506001600160a01b038135811691602081013590911690604001356106f4565b610254600480360360408110156102b257600080fd5b506001600160a01b03813516906020013561074b565b61021e600480360360408110156102de57600080fd5b506001600160a01b038135169060200135610776565b61021e6004803603606081101561030a57600080fd5b506001600160a01b03813581169160208101359091169060400135610788565b6102546004803603602081101561034057600080fd5b50356107a3565b6101d66004803603602081101561035d57600080fd5b50356107b9565b6101446107e1565b6102546004803603602081101561038257600080fd5b50356001600160a01b0316610842565b6101d66108aa565b6101446108b9565b61021e600480360360408110156103b857600080fd5b506001600160a01b038135169060200135151561091a565b61021e600480360360808110156103e657600080fd5b6001600160a01b03823581169260208101359091169160408201359190810190608081016060820135600160201b81111561042057600080fd5b82018360208201111561043257600080fd5b803590602001918460018302840111600160201b8311171561045357600080fd5b91908080601f016020809104026020016040519081016040528093929190818152602001838380828437600092019190915250929550610a1b945050505050565b610144600480360360208110156104aa57600080fd5b5035610a79565b610128600480360360408110156104c757600080fd5b506001600160a01b0381358116916020013516610d20565b6001600160e01b0319811660009081526020819052604090205460ff165b919050565b60068054604080516020601f600260001961010060018816150201909516949094049384018190048102820181019092528281526060939092909183018282801561058e5780601f106105635761010080835404028352916020019161058e565b820191906000526020600020905b81548152906001019060200180831161057157829003601f168201915b5050505050905090565b60006105a382610d4e565b6105de5760405162461bcd60e51b815260040180806020018281038252602c815260200180611a2e602c913960400191505060405180910390fd5b506000908152600460205260409020546001600160a01b031690565b6000610605826107b9565b9050806001600160a01b0316836001600160a01b031614156106585760405162461bcd60e51b8152600401808060200182810382526021815260200180611ad26021913960400191505060405180910390fd5b806001600160a01b031661066a610d5b565b6001600160a01b0316148061068b575061068b81610686610d5b565b610d20565b6106c65760405162461bcd60e51b81526004018080602001828103825260388152602001806119816038913960400191505060405180910390fd5b6106d08383610d5f565b505050565b6106df8282610dcd565b5050565b60006106ef6002610ee8565b905090565b6107056106ff610d5b565b82610ef3565b6107405760405162461bcd60e51b8152600401808060200182810382526031815260200180611af36031913960400191505060405180910390fd5b6106d0838383610f97565b6001600160a01b038216600090815260016020526040812061076d90836110d1565b90505b92915050565b6106df610781610d5b565b8383610f97565b6106d083838360405180602001604052806000815250610a1b565b6000806107b16002846110dd565b509392505050565b6000610770826040518060600160405280602981526020016119e360299139600291906110f9565b60098054604080516020601f600260001961010060018816150201909516949094049384018190048102820181019092528281526060939092909183018282801561058e5780601f106105635761010080835404028352916020019161058e565b60006001600160a01b0382166108895760405162461bcd60e51b815260040180806020018281038252602a8152602001806119b9602a913960400191505060405180910390fd5b6001600160a01b038216600090815260016020526040902061077090610ee8565b600a546001600160a01b031681565b60078054604080516020601f600260001961010060018816150201909516949094049384018190048102820181019092528281526060939092909183018282801561058e5780601f106105635761010080835404028352916020019161058e565b610922610d5b565b6001600160a01b0316826001600160a01b03161415610984576040805162461bcd60e51b815260206004820152601960248201527822a9219b99189d1030b8383937bb32903a379031b0b63632b960391b604482015290519081900360640190fd5b8060056000610991610d5b565b6001600160a01b03908116825260208083019390935260409182016000908120918716808252919093529120805460ff1916921515929092179091556109d5610d5b565b6001600160a01b03167f17307eab39ab6107e8899845ad3d59bd9653f200f220920489ca2b5937696c318360405180821515815260200191505060405180910390a35050565b610a2c610a26610d5b565b83610ef3565b610a675760405162461bcd60e51b8152600401808060200182810382526031815260200180611af36031913960400191505060405180910390fd5b610a7384848484611110565b50505050565b6060610a8482610d4e565b610abf5760405162461bcd60e51b815260040180806020018281038252602f815260200180611a83602f913960400191505060405180910390fd5b60008281526008602090815260409182902080548351601f6002600019610100600186161502019093169290920491820184900484028101840190945280845260609392830182828015610b545780601f10610b2957610100808354040283529160200191610b54565b820191906000526020600020905b815481529060010190602001808311610b3757829003601f168201915b505060095493945050505060026000196101006001841615020190911604610b7d5790506104fd565b805115610c4e576009816040516020018083805460018160011615610100020316600290048015610be55780601f10610bc3576101008083540402835291820191610be5565b820191906000526020600020905b815481529060010190602001808311610bd1575b5050825160208401908083835b60208310610c115780518252601f199092019160209182019101610bf2565b6001836020036101000a038019825116818451168082178552505050505050905001925050506040516020818303038152906040529150506104fd565b6009610c5984611162565b6040516020018083805460018160011615610100020316600290048015610cb75780601f10610c95576101008083540402835291820191610cb7565b820191906000526020600020905b815481529060010190602001808311610ca3575b5050825160208401908083835b60208310610ce35780518252601f199092019160209182019101610cc4565b6001836020036101000a03801982511681845116808217855250505050505090500192505050604051602081830303815290604052915050919050565b6001600160a01b03918216600090815260056020908152604080832093909416825291909152205460ff1690565b600061077060028361123c565b3390565b600081815260046020526040902080546001600160a01b0319166001600160a01b0384169081179091558190610d94826107b9565b6001600160a01b03167f8c5be1e5ebec7d5bd14f71427d1e84f3dd0314c0f7b2291e5b200ac8c7c3b92560405160405180910390a45050565b6001600160a01b038216610e28576040805162461bcd60e51b815260206004820181905260248201527f4552433732313a206d696e7420746f20746865207a65726f2061646472657373604482015290519081900360640190fd5b610e3181610d4e565b15610e82576040805162461bcd60e51b815260206004820152601c60248201527b115490cdcc8c4e881d1bdad95b88185b1c9958591e481b5a5b9d195960221b604482015290519081900360640190fd5b610e8e600083836106d0565b6001600160a01b0382166000908152600160205260409020610eb09082611248565b50610ebd60028284611254565b5060405181906001600160a01b03841690600090600080516020611ab2833981519152908290a45050565b60006107708261126a565b6000610efe82610d4e565b610f395760405162461bcd60e51b815260040180806020018281038252602c815260200180611955602c913960400191505060405180910390fd5b6000610f44836107b9565b9050806001600160a01b0316846001600160a01b03161480610f7f5750836001600160a01b0316610f7484610598565b6001600160a01b0316145b80610f8f5750610f8f8185610d20565b949350505050565b826001600160a01b0316610faa826107b9565b6001600160a01b031614610fef5760405162461bcd60e51b8152600401808060200182810382526029815260200180611a5a6029913960400191505060405180910390fd5b6001600160a01b0382166110345760405162461bcd60e51b81526004018080602001828103825260248152602001806119316024913960400191505060405180910390fd5b61103f8383836106d0565b61104a600082610d5f565b6001600160a01b038316600090815260016020526040902061106c908261126e565b506001600160a01b038216600090815260016020526040902061108f9082611248565b5061109c60028284611254565b5080826001600160a01b0316846001600160a01b0316600080516020611ab283398151915260405160405180910390a4505050565b600061076d838361127a565b60008080806110ec86866112de565b9097909650945050505050565b6000611106848484611359565b90505b9392505050565b61111b848484610f97565b61112784848484611423565b610a735760405162461bcd60e51b81526004018080602001828103825260328152602001806118ff6032913960400191505060405180910390fd5b60608161118757506040805180820190915260018152600360fc1b60208201526104fd565b8160005b811561119f57600101600a8204915061118b565b6060816001600160401b03811180156111b757600080fd5b506040519080825280601f01601f1916602001820160405280156111e2576020820181803683370190505b50859350905060001982015b831561123357600a840660300160f81b8282806001900393508151811061121157fe5b60200101906001600160f81b031916908160001a905350600a840493506111ee565b50949350505050565b600061076d838361158b565b600061076d83836115a3565b600061110684846001600160a01b0385166115ed565b5490565b600061076d8383611684565b815460009082106112bc5760405162461bcd60e51b81526004018080602001828103825260228152602001806118dd6022913960400191505060405180910390fd5b8260000182815481106112cb57fe5b9060005260206000200154905092915050565b8154600090819083106113225760405162461bcd60e51b8152600401808060200182810382526022815260200180611a0c6022913960400191505060405180910390fd5b600084600001848154811061133357fe5b906000526020600020906002020190508060000154816001015492509250509250929050565b600082815260018401602052604081205482816113f45760405162461bcd60e51b81526004018080602001828103825283818151815260200191508051906020019080838360005b838110156113b95781810151838201526020016113a1565b50505050905090810190601f1680156113e65780820380516001836020036101000a031916815260200191505b509250505060405180910390fd5b5084600001600182038154811061140757fe5b9060005260206000209060020201600101549150509392505050565b6000611437846001600160a01b031661174a565b61144357506001610f8f565b6060611551630a85bd0160e11b611458610d5b565b88878760405160240180856001600160a01b03168152602001846001600160a01b0316815260200183815260200180602001828103825283818151815260200191508051906020019080838360005b838110156114bf5781810151838201526020016114a7565b50505050905090810190601f1680156114ec5780820380516001836020036101000a031916815260200191505b5095505050505050604051602081830303815290604052906001600160e01b0319166020820180516001600160e01b0383818316178352505050506040518060600160405280603281526020016118ff603291396001600160a01b0388169190611750565b9050600081806020019051602081101561156a57600080fd5b50516001600160e01b031916630a85bd0160e11b1492505050949350505050565b60009081526001919091016020526040902054151590565b60006115af838361158b565b6115e557508154600181810184556000848152602080822090930184905584548482528286019093526040902091909155610770565b506000610770565b600082815260018401602052604081205480611652575050604080518082018252838152602080820184815286546001818101895560008981528481209551600290930290950191825591519082015586548684528188019092529290912055611109565b8285600001600183038154811061166557fe5b9060005260206000209060020201600101819055506000915050611109565b6000818152600183016020526040812054801561174057835460001980830191908101906000908790839081106116b757fe5b90600052602060002001549050808760000184815481106116d457fe5b60009182526020808320909101929092558281526001898101909252604090209084019055865487908061170457fe5b60019003818190600052602060002001600090559055866001016000878152602001908152602001600020600090556001945050505050610770565b6000915050610770565b3b151590565b60606111068484600085856117648561174a565b6117b5576040805162461bcd60e51b815260206004820152601d60248201527f416464726573733a2063616c6c20746f206e6f6e2d636f6e7472616374000000604482015290519081900360640190fd5b60006060866001600160a01b031685876040518082805190602001908083835b602083106117f45780518252601f1990920191602091820191016117d5565b6001836020036101000a03801982511681845116808217855250505050505090500191505060006040518083038185875af1925050503d8060008114611856576040519150601f19603f3d011682016040523d82523d6000602084013e61185b565b606091505b509150915061186b828286611876565b979650505050505050565b60608315611885575081611109565b8251156118955782518084602001fd5b60405162461bcd60e51b81526020600482018181528451602484015284518593919283926044019190850190808383600083156113b95781810151838201526020016113a156fe456e756d657261626c655365743a20696e646578206f7574206f6620626f756e64734552433732313a207472616e7366657220746f206e6f6e20455243373231526563656976657220696d706c656d656e7465724552433732313a207472616e7366657220746f20746865207a65726f20616464726573734552433732313a206f70657261746f7220717565727920666f72206e6f6e6578697374656e7420746f6b656e4552433732313a20617070726f76652063616c6c6572206973206e6f74206f776e6572206e6f7220617070726f76656420666f7220616c6c4552433732313a2062616c616e636520717565727920666f7220746865207a65726f20616464726573734552433732313a206f776e657220717565727920666f72206e6f6e6578697374656e7420746f6b656e456e756d657261626c654d61703a20696e646578206f7574206f6620626f756e64734552433732313a20617070726f76656420717565727920666f72206e6f6e6578697374656e7420746f6b656e4552433732313a207472616e73666572206f6620746f6b656e2074686174206973206e6f74206f776e4552433732314d657461646174613a2055524920717565727920666f72206e6f6e6578697374656e7420746f6b656eddf252ad1be2c89b69c2b068fc378daa952ba7f163c4a11628f55a4df523b3ef4552433732313a20617070726f76616c20746f2063757272656e74206f776e65724552433732313a207472616e736665722063616c6c6572206973206e6f74206f776e6572206e6f7220617070726f766564a26469706673582212201db4d8a2b0b3dc12e6580384fafce7f6fc57b7c1b567569c0abbc37b90836cec64736f6c63430007050033",
  "linkReferences": {},
  "deployedLinkReferences": {}
}