{
  "_format": "hh-sol-artifact-1",
  "contractName": "StableUSD",
  "sourceName": "contracts/StableUSD.sol",
  "abi": [
    {
      "inputs": [],
      "stateMutability": "nonpayable",
      "type": "constructor"
    },
    {
      "anonymous": false,
      "inputs": [
        {
          "indexed": true,
          "internalType": "address",
          "name": "owner",
          "type": "address"
        },
        {
          "indexed": true,
          "internalType": "address",
          "name": "spender",
          "type": "address"
        },
        {
          "indexed": false,
          "internalType": "uint256",
          "name": "value",
          "type": "uint256"
        }
      ],
      "name": "Approval",
      "type": "event"
    },
    {
      "anonymous": false,
      "inputs": [
        {
          "indexed": true,
          "internalType": "address",
          "name": "from",
          "type": "address"
        },
        {
          "indexed": true,
          "internalType": "address",
          "name": "to",
          "type": "address"
        },
        {
          "indexed": false,
          "internalType": "uint256",
          "name": "value",
          "type": "uint256"
        }
      ],
      "name": "Transfer",
      "type": "event"
    },
    {
      "inputs": [
        {
          "internalType": "address",
          "name": "owner",
          "type": "address"
        },
        {
          "internalType": "address",
          "name": "spender",
          "type": "address"
        }
      ],
      "name": "allowance",
      "outputs": [
        {
          "internalType": "uint256",
          "name": "",
          "type": "uint256"
        }
      ],
      "stateMutability": "view",
      "type": "function"
    },
    {
      "inputs": [
        {
          "internalType": "address",
          "name": "spender",
          "type": "address"
        },
        {
          "internalType": "uint256",
          "name": "amount",
          "type": "uint256"
        }
      ],
      "name": "approve",
      "outputs": [
        {
          "internalType": "bool",
          "name": "",
          "type": "bool"
        }
      ],
      "stateMutability": "nonpayable",
      "type": "function"
    },
    {
      "inputs": [
        {
          "internalType": "address",
          "name": "account",
          "type": "address"
        }
      ],
      "name": "balanceOf",
      "outputs": [
        {
          "internalType": "uint256",
          "name": "",
          "type": "uint256"
        }
      ],
      "stateMutability": "view",
      "type": "function"
    },
    {
      "inputs": [],
      "name": "decimals",
      "outputs": [
        {
          "internalType": "uint8",
          "name": "",
          "type": "uint8"
        }
      ],
      "stateMutability": "view",
      "type": "function"
    },
    {
      "inputs": [
        {
          "internalType": "address",
          "name": "spender",
          "type": "address"
        },
        {
          "internalType": "uint256",
          "name": "subtractedValue",
          "type": "uint256"
        }
      ],
      "name": "decreaseAllowance",
      "outputs": [
        {
          "internalType": "bool",
          "name": "",
          "type": "bool"
        }
      ],
      "stateMutability": "nonpayable",
      "type": "function"
    },
    {
      "inputs": [
        {
          "internalType": "address",
          "name": "spender",
          "type": "address"
        },
        {
          "internalType": "uint256",
          "name": "addedValue",
          "type": "uint256"
        }
      ],
      "name": "increaseAllowance",
      "outputs": [
        {
          "internalType": "bool",
          "name": "",
          "type": "bool"
        }
      ],
      "stateMutability": "nonpayable",
      "type": "function"
    },
    {
      "inputs": [],
      "name": "name",
      "outputs": [
        {
          "internalType": "string",
          "name": "",
          "type": "string"
        }
      ],
      "stateMutability": "view",
      "type": "function"
    },
    {
      "inputs": [],
      "name": "owner",
      "outputs": [
        {
          "internalType": "address",
          "name": "",
          "type": "address"
        }
      ],
      "stateMutability": "view",
      "type": "function"
    },
    {
      "inputs": [],
      "name": "symbol",
      "outputs": [
        {
          "internalType": "string",
          "name": "",
          "type": "string"
        }
      ],
      "stateMutability": "view",
      "type": "function"
    },
    {
      "inputs": [],
      "name": "totalSupply",
      "outputs": [
        {
          "internalType": "uint256",
          "name": "",
          "type": "uint256"
        }
      ],
      "stateMutability": "view",
      "type": "function"
    },
    {
      "inputs": [
        {
          "internalType": "address",
          "name": "recipient",
          "type": "address"
        },
        {
          "internalType": "uint256",
          "name": "amount",
          "type": "uint256"
        }
      ],
      "name": "transfer",
      "outputs": [
        {
          "internalType": "bool",
          "name": "",
          "type": "bool"
        }
      ],
      "stateMutability": "nonpayable",
      "type": "function"
    },
    {
      "inputs": [
        {
          "internalType": "address",
          "name": "sender",
          "type": "address"
        },
        {
          "internalType": "address",
          "name": "recipient",
          "type": "address"
        },
        {
          "internalType": "uint256",
          "name": "amount",
          "type": "uint256"
        }
      ],
      "name": "transferFrom",
      "outputs": [
        {
          "internalType": "bool",
          "name": "",
          "type": "bool"
        }
      ],
      "stateMutability": "nonpayable",
      "type": "function"
    }
  ],
  "bytecode": "0x60806040523480156200001157600080fd5b50600080546001600160a01b031916331790556040805180820190915260098082526814dd18589b195554d160ba1b6020909201918252620000569160049162000222565b506040805180820190915260048082526314d554d160e21b6020909201918252620000849160059162000222565b506006805460ff19166002179055620000a2336305f5e100620000a8565b620002ce565b6001600160a01b03821662000104576040805162461bcd60e51b815260206004820152601f60248201527f45524332303a206d696e7420746f20746865207a65726f206164647265737300604482015290519081900360640190fd5b6200011260008383620001bb565b6200012e81600354620001c060201b620005a11790919060201c565b6003556001600160a01b03821660009081526001602090815260409091205462000163918390620005a1620001c0821b17901c565b6001600160a01b03831660008181526001602090815260408083209490945583518581529351929391927fddf252ad1be2c89b69c2b068fc378daa952ba7f163c4a11628f55a4df523b3ef9281900390910190a35050565b505050565b6000828201838110156200021b576040805162461bcd60e51b815260206004820152601b60248201527f536166654d6174683a206164646974696f6e206f766572666c6f770000000000604482015290519081900360640190fd5b9392505050565b828054600181600116156101000203166002900490600052602060002090601f0160209004810192826200025a5760008555620002a5565b82601f106200027557805160ff1916838001178555620002a5565b82800160010185558215620002a5579182015b82811115620002a557825182559160200191906001019062000288565b50620002b3929150620002b7565b5090565b5b80821115620002b35760008155600101620002b8565b6109ff80620002de6000396000f3fe608060405234801561001057600080fd5b50600436106100a45760003560e01c806306fdde03146100a9578063095ea7b31461012657806318160ddd1461016657806323b872dd14610180578063313ce567146101b657806339509351146101d457806370a08231146102005780638da5cb5b1461022657806395d89b411461024a578063a457c2d714610252578063a9059cbb1461027e578063dd62ed3e146102aa575b600080fd5b6100b16102d8565b6040805160208082528351818301528351919283929083019185019080838360005b838110156100eb5781810151838201526020016100d3565b50505050905090810190601f1680156101185780820380516001836020036101000a031916815260200191505b509250505060405180910390f35b6101526004803603604081101561013c57600080fd5b506001600160a01b03813516906020013561036e565b604080519115158252519081900360200190f35b61016e61038b565b60408051918252519081900360200190f35b6101526004803603606081101561019657600080fd5b506001600160a01b03813581169160208101359091169060400135610391565b6101be610418565b6040805160ff9092168252519081900360200190f35b610152600480360360408110156101ea57600080fd5b506001600160a01b038135169060200135610421565b61016e6004803603602081101561021657600080fd5b50356001600160a01b031661046f565b61022e61048a565b604080516001600160a01b039092168252519081900360200190f35b6100b1610499565b6101526004803603604081101561026857600080fd5b506001600160a01b0381351690602001356104fa565b6101526004803603604081101561029457600080fd5b506001600160a01b038135169060200135610562565b61016e600480360360408110156102c057600080fd5b506001600160a01b0381358116916020013516610576565b60048054604080516020601f60026000196101006001881615020190951694909404938401819004810282018101909252828152606093909290918301828280156103645780601f1061033957610100808354040283529160200191610364565b820191906000526020600020905b81548152906001019060200180831161034757829003601f168201915b5050505050905090565b600061038261037b610600565b8484610604565b50600192915050565b60035490565b600061039e8484846106f0565b61040e846103aa610600565b61040985604051806060016040528060288152602001610934602891396001600160a01b038a166000908152600260205260408120906103e8610600565b6001600160a01b031681526020810191909152604001600020549190610852565b610604565b5060019392505050565b60065460ff1690565b600061038261042e610600565b84610409856002600061043f610600565b6001600160a01b03908116825260208083019390935260409182016000908120918c1681529252902054906105a1565b6001600160a01b031660009081526001602052604090205490565b6000546001600160a01b031681565b60058054604080516020601f60026000196101006001881615020190951694909404938401819004810282018101909252828152606093909290918301828280156103645780601f1061033957610100808354040283529160200191610364565b6000610382610507610600565b84610409856040518060600160405280602581526020016109a56025913960026000610531610600565b6001600160a01b03908116825260208083019390935260409182016000908120918d16815292529020549190610852565b600061038261056f610600565b84846106f0565b6001600160a01b03918216600090815260026020908152604080832093909416825291909152205490565b6000828201838110156105f9576040805162461bcd60e51b815260206004820152601b60248201527a536166654d6174683a206164646974696f6e206f766572666c6f7760281b604482015290519081900360640190fd5b9392505050565b3390565b6001600160a01b0383166106495760405162461bcd60e51b81526004018080602001828103825260248152602001806109816024913960400191505060405180910390fd5b6001600160a01b03821661068e5760405162461bcd60e51b81526004018080602001828103825260228152602001806109126022913960400191505060405180910390fd5b6001600160a01b03808416600081815260026020908152604080832094871680845294825291829020859055815185815291517f8c5be1e5ebec7d5bd14f71427d1e84f3dd0314c0f7b2291e5b200ac8c7c3b9259281900390910190a3505050565b6001600160a01b0383166107355760405162461bcd60e51b815260040180806020018281038252602581526020018061095c6025913960400191505060405180910390fd5b6001600160a01b03821661077a5760405162461bcd60e51b81526004018080602001828103825260238152602001806108ef6023913960400191505060405180910390fd5b6107858383836108e9565b6001600160a01b0383166000908152600160205260409020548111156107e6576040805162461bcd60e51b81526020600482015260116024820152704e6f7420656e6f75676820746f6b656e7360781b604482015290519081900360640190fd5b6001600160a01b03808416600081815260016020908152604080832080548790039055938616808352918490208054860190558351858152935191937fddf252ad1be2c89b69c2b068fc378daa952ba7f163c4a11628f55a4df523b3ef929081900390910190a3505050565b600081848411156108e15760405162461bcd60e51b81526004018080602001828103825283818151815260200191508051906020019080838360005b838110156108a657818101518382015260200161088e565b50505050905090810190601f1680156108d35780820380516001836020036101000a031916815260200191505b509250505060405180910390fd5b505050900390565b50505056fe45524332303a207472616e7366657220746f20746865207a65726f206164647265737345524332303a20617070726f766520746f20746865207a65726f206164647265737345524332303a207472616e7366657220616d6f756e74206578636565647320616c6c6f77616e636545524332303a207472616e736665722066726f6d20746865207a65726f206164647265737345524332303a20617070726f76652066726f6d20746865207a65726f206164647265737345524332303a2064656372656173656420616c6c6f77616e63652062656c6f77207a65726fa26469706673582212206714ab6a1382afbb7346311fbeebd1b3712198fb74589241b13370fc6d22761664736f6c63430007050033",
  "linkReferences": {},
  "deployedLinkReferences": {}
}