{
  "_format": "hh-sol-artifact-1",
  "contractName": "owned",
  "sourceName": "contracts/owned.sol",
  "abi": [
    {
      "inputs": [],
      "stateMutability": "nonpayable",
      "type": "constructor"
    },
    {
      "inputs": [],
      "name": "owner",
      "outputs": [
        {
          "internalType": "address",
          "name": "",
          "type": "address"
        }
      ],
      "stateMutability": "view",
      "type": "function"
    }
  ],
  "bytecode": "0x6080604052348015600f57600080fd5b50600080546001600160a01b031916331790556094806100306000396000f3fe6080604052348015600f57600080fd5b506004361060285760003560e01c80638da5cb5b14602d575b600080fd5b6033604f565b604080516001600160a01b039092168252519081900360200190f35b6000546001600160a01b03168156fea264697066735822122020b3884178e65615fcb420be6e6ded97870e1e3ddfe1e8eba9ae78f2c969716064736f6c63430007050033",
  "linkReferences": {},
  "deployedLinkReferences": {}
}